{
	"data": {
		"bytecode": {
			"linkReferences": {},
			"object": "608060405234801561001057600080fd5b50336000806101000a81548173ffffffffffffffffffffffffffffffffffffffff021916908373ffffffffffffffffffffffffffffffffffffffff160217905550611963806100606000396000f3fe608060405234801561001057600080fd5b50600436106100935760003560e01c80638da5cb5b116100665780638da5cb5b146101315780639f01cf991461014f578063ca5140c91461017f578063e0fafb5e1461019b578063fc515f95146101b957610093565b8063326c45f014610098578063637a3872146100c857806368744046146100e45780636b95c7c114610115575b600080fd5b6100b260048036038101906100ad919061100a565b6101e9565b6040516100bf9190611359565b60405180910390f35b6100e260048036038101906100dd9190610faa565b61028a565b005b6100fe60048036038101906100f9919061100a565b61065c565b60405161010c92919061139d565b60405180910390f35b61012f600480360381019061012a919061100a565b610718565b005b6101396109e3565b604051610146919061133e565b60405180910390f35b61016960048036038101906101649190611037565b610a07565b604051610176919061133e565b60405180910390f35b6101996004803603810190610194919061100a565b610a55565b005b6101a3610d45565b6040516101b0919061137b565b60405180910390f35b6101d360048036038101906101ce9190610f6a565b610e16565b6040516101e0919061148d565b60405180910390f35b60606001600083815260200190815260200160002080548060200260200160405190810160405280929190818152602001828054801561027e57602002820191906000526020600020905b8160009054906101000a900473ffffffffffffffffffffffffffffffffffffffff1673ffffffffffffffffffffffffffffffffffffffff1681526020019060010190808311610234575b50505050509050919050565b3373ffffffffffffffffffffffffffffffffffffffff1660008054906101000a900473ffffffffffffffffffffffffffffffffffffffff1673ffffffffffffffffffffffffffffffffffffffff1614610318576040517f08c379a000000000000000000000000000000000000000000000000000000000815260040161030f9061142d565b60405180910390fd5b82828080601f016020809104026020016040519081016040528093929190818152602001838380828437600081840152601f19601f820116905080830192505050505050506003805480602002602001604051908101604052809291908181526020016000905b8282101561044d57838290600052602060002090600202016040518060400160405290816000820180546103b290611616565b80601f01602080910402602001604051908101604052809291908181526020018280546103de90611616565b801561042b5780601f106104005761010080835404028352916020019161042b565b820191906000526020600020905b81548152906001019060200180831161040e57829003601f168201915b505050505081526020016001820154815250508152602001906001019061037f565b50505050600080600090505b82518110156104f5578360405160200161047391906112f8565b6040516020818303038152906040528051906020012083828151811061049c5761049b6116ef565b5b6020026020010151600001516040516020016104b891906112f8565b6040516020818303038152906040528051906020012014156104dd57600191506104e2565b600091505b80806104ed90611648565b915050610459565b508015610537576040517f08c379a000000000000000000000000000000000000000000000000000000000815260040161052e9061146d565b60405180910390fd5b836000811161057b576040517f08c379a00000000000000000000000000000000000000000000000000000000081526004016105729061144d565b60405180910390fd5b6003604051806040016040528089898080601f016020809104026020016040519081016040528093929190818152602001838380828437600081840152601f19601f820116905080830192505050505050508152602001878152509080600181540180825580915050600190039060005260206000209060020201600090919091909150600082015181600001908051906020019061061b929190610e47565b506020820151816001015550506000600160038054905061063c9190611573565b905060016000828152602001908152602001600020505050505050505050565b6003818154811061066c57600080fd5b906000526020600020906002020160009150905080600001805461068f90611616565b80601f01602080910402602001604051908101604052809291908181526020018280546106bb90611616565b80156107085780601f106106dd57610100808354040283529160200191610708565b820191906000526020600020905b8154815290600101906020018083116106eb57829003601f168201915b5050505050908060010154905082565b6003818154811061072c5761072b6116ef565b5b90600052602060002090600202016001015460008111610781576040517f08c379a00000000000000000000000000000000000000000000000000000000081526004016107789061144d565b60405180910390fd5b816003805480602002602001604051908101604052809291908181526020016000905b8282101561087257838290600052602060002090600202016040518060400160405290816000820180546107d790611616565b80601f016020809104026020016040519081016040528092919081815260200182805461080390611616565b80156108505780601f1061082557610100808354040283529160200191610850565b820191906000526020600020905b81548152906001019060200180831161083357829003601f168201915b50505050508152602001600182015481525050815260200190600101906107a4565b50505050805182108015610887575060008210155b6108c6576040517f08c379a00000000000000000000000000000000000000000000000000000000081526004016108bd9061140d565b60405180910390fd5b6001600385815481106108dc576108db6116ef565b5b906000526020600020906002020160010160008282546108fc9190611573565b92505081905550600260003373ffffffffffffffffffffffffffffffffffffffff1673ffffffffffffffffffffffffffffffffffffffff16815260200190815260200160002084908060018154018082558091505060019003906000526020600020016000909190919091505560016000858152602001908152602001600020339080600181540180825580915050600190039060005260206000200160009091909190916101000a81548173ffffffffffffffffffffffffffffffffffffffff021916908373ffffffffffffffffffffffffffffffffffffffff16021790555050505050565b60008054906101000a900473ffffffffffffffffffffffffffffffffffffffff1681565b60016020528160005260406000208181548110610a2357600080fd5b906000526020600020016000915091509054906101000a900473ffffffffffffffffffffffffffffffffffffffff1681565b3381600080600260008573ffffffffffffffffffffffffffffffffffffffff1673ffffffffffffffffffffffffffffffffffffffff168152602001908152602001600020805480602002602001604051908101604052809291908181526020018280548015610ae357602002820191906000526020600020905b815481526020019060010190808311610acf575b5050505050905060005b8151811015610b3957818181518110610b0957610b086116ef565b5b6020026020010151841415610b215760019250610b26565b600092505b8080610b3190611648565b915050610aed565b5081610b7a576040517f08c379a0000000000000000000000000000000000000000000000000000000008152600401610b71906113ed565b60405180910390fd5b846003805480602002602001604051908101604052809291908181526020016000905b82821015610c6b5783829060005260206000209060020201604051806040016040529081600082018054610bd090611616565b80601f0160208091040260200160405190810160405280929190818152602001828054610bfc90611616565b8015610c495780601f10610c1e57610100808354040283529160200191610c49565b820191906000526020600020905b815481529060010190602001808311610c2c57829003601f168201915b5050505050815260200160018201548152505081526020019060010190610b9d565b50505050805182108015610c80575060008210155b610cbf576040517f08c379a0000000000000000000000000000000000000000000000000000000008152600401610cb69061140d565b60405180910390fd5b600160038881548110610cd557610cd46116ef565b5b90600052602060002090600202016001016000828254610cf5919061151d565b92505081905550600260003373ffffffffffffffffffffffffffffffffffffffff1673ffffffffffffffffffffffffffffffffffffffff1681526020019081526020016000205050505050505050565b6060600060038054905011610d8f576040517f08c379a0000000000000000000000000000000000000000000000000000000008152600401610d86906113cd565b60405180910390fd5b600060405180602001604052806000815250905060005b600380549050811015610e0e578160038281548110610dc857610dc76116ef565b5b9060005260206000209060020201600001604051602001610dea92919061130f565b60405160208183030381529060405291508080610e0690611648565b915050610da6565b508091505090565b60026020528160005260406000208181548110610e3257600080fd5b90600052602060002001600091509150505481565b828054610e5390611616565b90600052602060002090601f016020900481019282610e755760008555610ebc565b82601f10610e8e57805160ff1916838001178555610ebc565b82800160010185558215610ebc579182015b82811115610ebb578251825591602001919060010190610ea0565b5b509050610ec99190610ecd565b5090565b5b80821115610ee6576000816000905550600101610ece565b5090565b600081359050610ef9816118ff565b92915050565b60008083601f840112610f1557610f14611723565b5b8235905067ffffffffffffffff811115610f3257610f3161171e565b5b602083019150836001820283011115610f4e57610f4d611728565b5b9250929050565b600081359050610f6481611916565b92915050565b60008060408385031215610f8157610f80611732565b5b6000610f8f85828601610eea565b9250506020610fa085828601610f55565b9150509250929050565b600080600060408486031215610fc357610fc2611732565b5b600084013567ffffffffffffffff811115610fe157610fe061172d565b5b610fed86828701610eff565b9350935050602061100086828701610f55565b9150509250925092565b6000602082840312156110205761101f611732565b5b600061102e84828501610f55565b91505092915050565b6000806040838503121561104e5761104d611732565b5b600061105c85828601610f55565b925050602061106d85828601610f55565b9150509250929050565b6000611083838361108f565b60208301905092915050565b611098816115a7565b82525050565b6110a7816115a7565b82525050565b60006110b8826114cd565b6110c281856114f0565b93506110cd836114a8565b8060005b838110156110fe5781516110e58882611077565b97506110f0836114e3565b9250506001810190506110d1565b5085935050505092915050565b6000611116826114d8565b6111208185611501565b93506111308185602086016115e3565b61113981611737565b840191505092915050565b600061114f826114d8565b6111598185611512565b93506111698185602086016115e3565b80840191505092915050565b6000815461118281611616565b61118c8186611512565b945060018216600081146111a757600181146111b8576111eb565b60ff198316865281860193506111eb565b6111c1856114b8565b60005b838110156111e3578154818901526001820191506020810190506111c4565b838801955050505b50505092915050565b6000611201600183611512565b915061120c82611748565b600182019050919050565b6000611224602b83611501565b915061122f82611771565b604082019050919050565b6000611247602b83611501565b9150611252826117c0565b604082019050919050565b600061126a602f83611501565b91506112758261180f565b604082019050919050565b600061128d601883611501565b91506112988261185e565b602082019050919050565b60006112b0602483611501565b91506112bb82611887565b604082019050919050565b60006112d3601f83611501565b91506112de826118d6565b602082019050919050565b6112f2816115d9565b82525050565b60006113048284611144565b915081905092915050565b600061131b8285611144565b91506113278284611175565b9150611332826111f4565b91508190509392505050565b6000602082019050611353600083018461109e565b92915050565b6000602082019050818103600083015261137381846110ad565b905092915050565b60006020820190508181036000830152611395818461110b565b905092915050565b600060408201905081810360008301526113b7818561110b565b90506113c660208301846112e9565b9392505050565b600060208201905081810360008301526113e681611217565b9050919050565b600060208201905081810360008301526114068161123a565b9050919050565b600060208201905081810360008301526114268161125d565b9050919050565b6000602082019050818103600083015261144681611280565b9050919050565b60006020820190508181036000830152611466816112a3565b9050919050565b60006020820190508181036000830152611486816112c6565b9050919050565b60006020820190506114a260008301846112e9565b92915050565b6000819050602082019050919050565b60008190508160005260206000209050919050565b600081519050919050565b600081519050919050565b6000602082019050919050565b600082825260208201905092915050565b600082825260208201905092915050565b600081905092915050565b6000611528826115d9565b9150611533836115d9565b9250827fffffffffffffffffffffffffffffffffffffffffffffffffffffffffffffffff0382111561156857611567611691565b5b828201905092915050565b600061157e826115d9565b9150611589836115d9565b92508282101561159c5761159b611691565b5b828203905092915050565b60006115b2826115b9565b9050919050565b600073ffffffffffffffffffffffffffffffffffffffff82169050919050565b6000819050919050565b60005b838110156116015780820151818401526020810190506115e6565b83811115611610576000848401525b50505050565b6000600282049050600182168061162e57607f821691505b60208210811415611642576116416116c0565b5b50919050565b6000611653826115d9565b91507fffffffffffffffffffffffffffffffffffffffffffffffffffffffffffffffff82141561168657611685611691565b5b600182019050919050565b7f4e487b7100000000000000000000000000000000000000000000000000000000600052601160045260246000fd5b7f4e487b7100000000000000000000000000000000000000000000000000000000600052602260045260246000fd5b7f4e487b7100000000000000000000000000000000000000000000000000000000600052603260045260246000fd5b600080fd5b600080fd5b600080fd5b600080fd5b600080fd5b6000601f19601f8301169050919050565b7f2c00000000000000000000000000000000000000000000000000000000000000600082015250565b7f546865726520617265206e6f20617661696c616c6520626f6f6b7320696e207460008201527f6865206c69627261727921000000000000000000000000000000000000000000602082015250565b7f5468652075736572206469646e277420626f72726f77206120636f7079206f6660008201527f207468697320626f6f6b21000000000000000000000000000000000000000000602082015250565b7f426f6f6b2077697468207468697320494420646f65736e27742065786973742060008201527f696e20746865206c6962726172792e0000000000000000000000000000000000602082015250565b7f4e6f7420696e766f6b656420627920746865206f776e65720000000000000000600082015250565b7f5468697320626f6f6b206d7573742068617665206174206c656173742031206360008201527f6f70792100000000000000000000000000000000000000000000000000000000602082015250565b7f546865206c69627261727920636f6e7461696e73207468617420626f6f6b2100600082015250565b611908816115a7565b811461191357600080fd5b50565b61191f816115d9565b811461192a57600080fd5b5056fea2646970667358221220dce951355ea7799762e5c8e7535f3ab7caa8cdb99436fa226f2b7a18c0aab20564736f6c63430008070033",
			"opcodes": "PUSH1 0x80 PUSH1 0x40 MSTORE CALLVALUE DUP1 ISZERO PUSH2 0x10 JUMPI PUSH1 0x0 DUP1 REVERT JUMPDEST POP CALLER PUSH1 0x0 DUP1 PUSH2 0x100 EXP DUP2 SLOAD DUP2 PUSH20 0xFFFFFFFFFFFFFFFFFFFFFFFFFFFFFFFFFFFFFFFF MUL NOT AND SWAP1 DUP4 PUSH20 0xFFFFFFFFFFFFFFFFFFFFFFFFFFFFFFFFFFFFFFFF AND MUL OR SWAP1 SSTORE POP PUSH2 0x1963 DUP1 PUSH2 0x60 PUSH1 0x0 CODECOPY PUSH1 0x0 RETURN INVALID PUSH1 0x80 PUSH1 0x40 MSTORE CALLVALUE DUP1 ISZERO PUSH2 0x10 JUMPI PUSH1 0x0 DUP1 REVERT JUMPDEST POP PUSH1 0x4 CALLDATASIZE LT PUSH2 0x93 JUMPI PUSH1 0x0 CALLDATALOAD PUSH1 0xE0 SHR DUP1 PUSH4 0x8DA5CB5B GT PUSH2 0x66 JUMPI DUP1 PUSH4 0x8DA5CB5B EQ PUSH2 0x131 JUMPI DUP1 PUSH4 0x9F01CF99 EQ PUSH2 0x14F JUMPI DUP1 PUSH4 0xCA5140C9 EQ PUSH2 0x17F JUMPI DUP1 PUSH4 0xE0FAFB5E EQ PUSH2 0x19B JUMPI DUP1 PUSH4 0xFC515F95 EQ PUSH2 0x1B9 JUMPI PUSH2 0x93 JUMP JUMPDEST DUP1 PUSH4 0x326C45F0 EQ PUSH2 0x98 JUMPI DUP1 PUSH4 0x637A3872 EQ PUSH2 0xC8 JUMPI DUP1 PUSH4 0x68744046 EQ PUSH2 0xE4 JUMPI DUP1 PUSH4 0x6B95C7C1 EQ PUSH2 0x115 JUMPI JUMPDEST PUSH1 0x0 DUP1 REVERT JUMPDEST PUSH2 0xB2 PUSH1 0x4 DUP1 CALLDATASIZE SUB DUP2 ADD SWAP1 PUSH2 0xAD SWAP2 SWAP1 PUSH2 0x100A JUMP JUMPDEST PUSH2 0x1E9 JUMP JUMPDEST PUSH1 0x40 MLOAD PUSH2 0xBF SWAP2 SWAP1 PUSH2 0x1359 JUMP JUMPDEST PUSH1 0x40 MLOAD DUP1 SWAP2 SUB SWAP1 RETURN JUMPDEST PUSH2 0xE2 PUSH1 0x4 DUP1 CALLDATASIZE SUB DUP2 ADD SWAP1 PUSH2 0xDD SWAP2 SWAP1 PUSH2 0xFAA JUMP JUMPDEST PUSH2 0x28A JUMP JUMPDEST STOP JUMPDEST PUSH2 0xFE PUSH1 0x4 DUP1 CALLDATASIZE SUB DUP2 ADD SWAP1 PUSH2 0xF9 SWAP2 SWAP1 PUSH2 0x100A JUMP JUMPDEST PUSH2 0x65C JUMP JUMPDEST PUSH1 0x40 MLOAD PUSH2 0x10C SWAP3 SWAP2 SWAP1 PUSH2 0x139D JUMP JUMPDEST PUSH1 0x40 MLOAD DUP1 SWAP2 SUB SWAP1 RETURN JUMPDEST PUSH2 0x12F PUSH1 0x4 DUP1 CALLDATASIZE SUB DUP2 ADD SWAP1 PUSH2 0x12A SWAP2 SWAP1 PUSH2 0x100A JUMP JUMPDEST PUSH2 0x718 JUMP JUMPDEST STOP JUMPDEST PUSH2 0x139 PUSH2 0x9E3 JUMP JUMPDEST PUSH1 0x40 MLOAD PUSH2 0x146 SWAP2 SWAP1 PUSH2 0x133E JUMP JUMPDEST PUSH1 0x40 MLOAD DUP1 SWAP2 SUB SWAP1 RETURN JUMPDEST PUSH2 0x169 PUSH1 0x4 DUP1 CALLDATASIZE SUB DUP2 ADD SWAP1 PUSH2 0x164 SWAP2 SWAP1 PUSH2 0x1037 JUMP JUMPDEST PUSH2 0xA07 JUMP JUMPDEST PUSH1 0x40 MLOAD PUSH2 0x176 SWAP2 SWAP1 PUSH2 0x133E JUMP JUMPDEST PUSH1 0x40 MLOAD DUP1 SWAP2 SUB SWAP1 RETURN JUMPDEST PUSH2 0x199 PUSH1 0x4 DUP1 CALLDATASIZE SUB DUP2 ADD SWAP1 PUSH2 0x194 SWAP2 SWAP1 PUSH2 0x100A JUMP JUMPDEST PUSH2 0xA55 JUMP JUMPDEST STOP JUMPDEST PUSH2 0x1A3 PUSH2 0xD45 JUMP JUMPDEST PUSH1 0x40 MLOAD PUSH2 0x1B0 SWAP2 SWAP1 PUSH2 0x137B JUMP JUMPDEST PUSH1 0x40 MLOAD DUP1 SWAP2 SUB SWAP1 RETURN JUMPDEST PUSH2 0x1D3 PUSH1 0x4 DUP1 CALLDATASIZE SUB DUP2 ADD SWAP1 PUSH2 0x1CE SWAP2 SWAP1 PUSH2 0xF6A JUMP JUMPDEST PUSH2 0xE16 JUMP JUMPDEST PUSH1 0x40 MLOAD PUSH2 0x1E0 SWAP2 SWAP1 PUSH2 0x148D JUMP JUMPDEST PUSH1 0x40 MLOAD DUP1 SWAP2 SUB SWAP1 RETURN JUMPDEST PUSH1 0x60 PUSH1 0x1 PUSH1 0x0 DUP4 DUP2 MSTORE PUSH1 0x20 ADD SWAP1 DUP2 MSTORE PUSH1 0x20 ADD PUSH1 0x0 KECCAK256 DUP1 SLOAD DUP1 PUSH1 0x20 MUL PUSH1 0x20 ADD PUSH1 0x40 MLOAD SWAP1 DUP2 ADD PUSH1 0x40 MSTORE DUP1 SWAP3 SWAP2 SWAP1 DUP2 DUP2 MSTORE PUSH1 0x20 ADD DUP3 DUP1 SLOAD DUP1 ISZERO PUSH2 0x27E JUMPI PUSH1 0x20 MUL DUP3 ADD SWAP2 SWAP1 PUSH1 0x0 MSTORE PUSH1 0x20 PUSH1 0x0 KECCAK256 SWAP1 JUMPDEST DUP2 PUSH1 0x0 SWAP1 SLOAD SWAP1 PUSH2 0x100 EXP SWAP1 DIV PUSH20 0xFFFFFFFFFFFFFFFFFFFFFFFFFFFFFFFFFFFFFFFF AND PUSH20 0xFFFFFFFFFFFFFFFFFFFFFFFFFFFFFFFFFFFFFFFF AND DUP2 MSTORE PUSH1 0x20 ADD SWAP1 PUSH1 0x1 ADD SWAP1 DUP1 DUP4 GT PUSH2 0x234 JUMPI JUMPDEST POP POP POP POP POP SWAP1 POP SWAP2 SWAP1 POP JUMP JUMPDEST CALLER PUSH20 0xFFFFFFFFFFFFFFFFFFFFFFFFFFFFFFFFFFFFFFFF AND PUSH1 0x0 DUP1 SLOAD SWAP1 PUSH2 0x100 EXP SWAP1 DIV PUSH20 0xFFFFFFFFFFFFFFFFFFFFFFFFFFFFFFFFFFFFFFFF AND PUSH20 0xFFFFFFFFFFFFFFFFFFFFFFFFFFFFFFFFFFFFFFFF AND EQ PUSH2 0x318 JUMPI PUSH1 0x40 MLOAD PUSH32 0x8C379A000000000000000000000000000000000000000000000000000000000 DUP2 MSTORE PUSH1 0x4 ADD PUSH2 0x30F SWAP1 PUSH2 0x142D JUMP JUMPDEST PUSH1 0x40 MLOAD DUP1 SWAP2 SUB SWAP1 REVERT JUMPDEST DUP3 DUP3 DUP1 DUP1 PUSH1 0x1F ADD PUSH1 0x20 DUP1 SWAP2 DIV MUL PUSH1 0x20 ADD PUSH1 0x40 MLOAD SWAP1 DUP2 ADD PUSH1 0x40 MSTORE DUP1 SWAP4 SWAP3 SWAP2 SWAP1 DUP2 DUP2 MSTORE PUSH1 0x20 ADD DUP4 DUP4 DUP1 DUP3 DUP5 CALLDATACOPY PUSH1 0x0 DUP2 DUP5 ADD MSTORE PUSH1 0x1F NOT PUSH1 0x1F DUP3 ADD AND SWAP1 POP DUP1 DUP4 ADD SWAP3 POP POP POP POP POP POP POP PUSH1 0x3 DUP1 SLOAD DUP1 PUSH1 0x20 MUL PUSH1 0x20 ADD PUSH1 0x40 MLOAD SWAP1 DUP2 ADD PUSH1 0x40 MSTORE DUP1 SWAP3 SWAP2 SWAP1 DUP2 DUP2 MSTORE PUSH1 0x20 ADD PUSH1 0x0 SWAP1 JUMPDEST DUP3 DUP3 LT ISZERO PUSH2 0x44D JUMPI DUP4 DUP3 SWAP1 PUSH1 0x0 MSTORE PUSH1 0x20 PUSH1 0x0 KECCAK256 SWAP1 PUSH1 0x2 MUL ADD PUSH1 0x40 MLOAD DUP1 PUSH1 0x40 ADD PUSH1 0x40 MSTORE SWAP1 DUP2 PUSH1 0x0 DUP3 ADD DUP1 SLOAD PUSH2 0x3B2 SWAP1 PUSH2 0x1616 JUMP JUMPDEST DUP1 PUSH1 0x1F ADD PUSH1 0x20 DUP1 SWAP2 DIV MUL PUSH1 0x20 ADD PUSH1 0x40 MLOAD SWAP1 DUP2 ADD PUSH1 0x40 MSTORE DUP1 SWAP3 SWAP2 SWAP1 DUP2 DUP2 MSTORE PUSH1 0x20 ADD DUP3 DUP1 SLOAD PUSH2 0x3DE SWAP1 PUSH2 0x1616 JUMP JUMPDEST DUP1 ISZERO PUSH2 0x42B JUMPI DUP1 PUSH1 0x1F LT PUSH2 0x400 JUMPI PUSH2 0x100 DUP1 DUP4 SLOAD DIV MUL DUP4 MSTORE SWAP2 PUSH1 0x20 ADD SWAP2 PUSH2 0x42B JUMP JUMPDEST DUP3 ADD SWAP2 SWAP1 PUSH1 0x0 MSTORE PUSH1 0x20 PUSH1 0x0 KECCAK256 SWAP1 JUMPDEST DUP2 SLOAD DUP2 MSTORE SWAP1 PUSH1 0x1 ADD SWAP1 PUSH1 0x20 ADD DUP1 DUP4 GT PUSH2 0x40E JUMPI DUP3 SWAP1 SUB PUSH1 0x1F AND DUP3 ADD SWAP2 JUMPDEST POP POP POP POP POP DUP2 MSTORE PUSH1 0x20 ADD PUSH1 0x1 DUP3 ADD SLOAD DUP2 MSTORE POP POP DUP2 MSTORE PUSH1 0x20 ADD SWAP1 PUSH1 0x1 ADD SWAP1 PUSH2 0x37F JUMP JUMPDEST POP POP POP POP PUSH1 0x0 DUP1 PUSH1 0x0 SWAP1 POP JUMPDEST DUP3 MLOAD DUP2 LT ISZERO PUSH2 0x4F5 JUMPI DUP4 PUSH1 0x40 MLOAD PUSH1 0x20 ADD PUSH2 0x473 SWAP2 SWAP1 PUSH2 0x12F8 JUMP JUMPDEST PUSH1 0x40 MLOAD PUSH1 0x20 DUP2 DUP4 SUB SUB DUP2 MSTORE SWAP1 PUSH1 0x40 MSTORE DUP1 MLOAD SWAP1 PUSH1 0x20 ADD KECCAK256 DUP4 DUP3 DUP2 MLOAD DUP2 LT PUSH2 0x49C JUMPI PUSH2 0x49B PUSH2 0x16EF JUMP JUMPDEST JUMPDEST PUSH1 0x20 MUL PUSH1 0x20 ADD ADD MLOAD PUSH1 0x0 ADD MLOAD PUSH1 0x40 MLOAD PUSH1 0x20 ADD PUSH2 0x4B8 SWAP2 SWAP1 PUSH2 0x12F8 JUMP JUMPDEST PUSH1 0x40 MLOAD PUSH1 0x20 DUP2 DUP4 SUB SUB DUP2 MSTORE SWAP1 PUSH1 0x40 MSTORE DUP1 MLOAD SWAP1 PUSH1 0x20 ADD KECCAK256 EQ ISZERO PUSH2 0x4DD JUMPI PUSH1 0x1 SWAP2 POP PUSH2 0x4E2 JUMP JUMPDEST PUSH1 0x0 SWAP2 POP JUMPDEST DUP1 DUP1 PUSH2 0x4ED SWAP1 PUSH2 0x1648 JUMP JUMPDEST SWAP2 POP POP PUSH2 0x459 JUMP JUMPDEST POP DUP1 ISZERO PUSH2 0x537 JUMPI PUSH1 0x40 MLOAD PUSH32 0x8C379A000000000000000000000000000000000000000000000000000000000 DUP2 MSTORE PUSH1 0x4 ADD PUSH2 0x52E SWAP1 PUSH2 0x146D JUMP JUMPDEST PUSH1 0x40 MLOAD DUP1 SWAP2 SUB SWAP1 REVERT JUMPDEST DUP4 PUSH1 0x0 DUP2 GT PUSH2 0x57B JUMPI PUSH1 0x40 MLOAD PUSH32 0x8C379A000000000000000000000000000000000000000000000000000000000 DUP2 MSTORE PUSH1 0x4 ADD PUSH2 0x572 SWAP1 PUSH2 0x144D JUMP JUMPDEST PUSH1 0x40 MLOAD DUP1 SWAP2 SUB SWAP1 REVERT JUMPDEST PUSH1 0x3 PUSH1 0x40 MLOAD DUP1 PUSH1 0x40 ADD PUSH1 0x40 MSTORE DUP1 DUP10 DUP10 DUP1 DUP1 PUSH1 0x1F ADD PUSH1 0x20 DUP1 SWAP2 DIV MUL PUSH1 0x20 ADD PUSH1 0x40 MLOAD SWAP1 DUP2 ADD PUSH1 0x40 MSTORE DUP1 SWAP4 SWAP3 SWAP2 SWAP1 DUP2 DUP2 MSTORE PUSH1 0x20 ADD DUP4 DUP4 DUP1 DUP3 DUP5 CALLDATACOPY PUSH1 0x0 DUP2 DUP5 ADD MSTORE PUSH1 0x1F NOT PUSH1 0x1F DUP3 ADD AND SWAP1 POP DUP1 DUP4 ADD SWAP3 POP POP POP POP POP POP POP DUP2 MSTORE PUSH1 0x20 ADD DUP8 DUP2 MSTORE POP SWAP1 DUP1 PUSH1 0x1 DUP2 SLOAD ADD DUP1 DUP3 SSTORE DUP1 SWAP2 POP POP PUSH1 0x1 SWAP1 SUB SWAP1 PUSH1 0x0 MSTORE PUSH1 0x20 PUSH1 0x0 KECCAK256 SWAP1 PUSH1 0x2 MUL ADD PUSH1 0x0 SWAP1 SWAP2 SWAP1 SWAP2 SWAP1 SWAP2 POP PUSH1 0x0 DUP3 ADD MLOAD DUP2 PUSH1 0x0 ADD SWAP1 DUP1 MLOAD SWAP1 PUSH1 0x20 ADD SWAP1 PUSH2 0x61B SWAP3 SWAP2 SWAP1 PUSH2 0xE47 JUMP JUMPDEST POP PUSH1 0x20 DUP3 ADD MLOAD DUP2 PUSH1 0x1 ADD SSTORE POP POP PUSH1 0x0 PUSH1 0x1 PUSH1 0x3 DUP1 SLOAD SWAP1 POP PUSH2 0x63C SWAP2 SWAP1 PUSH2 0x1573 JUMP JUMPDEST SWAP1 POP PUSH1 0x1 PUSH1 0x0 DUP3 DUP2 MSTORE PUSH1 0x20 ADD SWAP1 DUP2 MSTORE PUSH1 0x20 ADD PUSH1 0x0 KECCAK256 POP POP POP POP POP POP POP POP POP JUMP JUMPDEST PUSH1 0x3 DUP2 DUP2 SLOAD DUP2 LT PUSH2 0x66C JUMPI PUSH1 0x0 DUP1 REVERT JUMPDEST SWAP1 PUSH1 0x0 MSTORE PUSH1 0x20 PUSH1 0x0 KECCAK256 SWAP1 PUSH1 0x2 MUL ADD PUSH1 0x0 SWAP2 POP SWAP1 POP DUP1 PUSH1 0x0 ADD DUP1 SLOAD PUSH2 0x68F SWAP1 PUSH2 0x1616 JUMP JUMPDEST DUP1 PUSH1 0x1F ADD PUSH1 0x20 DUP1 SWAP2 DIV MUL PUSH1 0x20 ADD PUSH1 0x40 MLOAD SWAP1 DUP2 ADD PUSH1 0x40 MSTORE DUP1 SWAP3 SWAP2 SWAP1 DUP2 DUP2 MSTORE PUSH1 0x20 ADD DUP3 DUP1 SLOAD PUSH2 0x6BB SWAP1 PUSH2 0x1616 JUMP JUMPDEST DUP1 ISZERO PUSH2 0x708 JUMPI DUP1 PUSH1 0x1F LT PUSH2 0x6DD JUMPI PUSH2 0x100 DUP1 DUP4 SLOAD DIV MUL DUP4 MSTORE SWAP2 PUSH1 0x20 ADD SWAP2 PUSH2 0x708 JUMP JUMPDEST DUP3 ADD SWAP2 SWAP1 PUSH1 0x0 MSTORE PUSH1 0x20 PUSH1 0x0 KECCAK256 SWAP1 JUMPDEST DUP2 SLOAD DUP2 MSTORE SWAP1 PUSH1 0x1 ADD SWAP1 PUSH1 0x20 ADD DUP1 DUP4 GT PUSH2 0x6EB JUMPI DUP3 SWAP1 SUB PUSH1 0x1F AND DUP3 ADD SWAP2 JUMPDEST POP POP POP POP POP SWAP1 DUP1 PUSH1 0x1 ADD SLOAD SWAP1 POP DUP3 JUMP JUMPDEST PUSH1 0x3 DUP2 DUP2 SLOAD DUP2 LT PUSH2 0x72C JUMPI PUSH2 0x72B PUSH2 0x16EF JUMP JUMPDEST JUMPDEST SWAP1 PUSH1 0x0 MSTORE PUSH1 0x20 PUSH1 0x0 KECCAK256 SWAP1 PUSH1 0x2 MUL ADD PUSH1 0x1 ADD SLOAD PUSH1 0x0 DUP2 GT PUSH2 0x781 JUMPI PUSH1 0x40 MLOAD PUSH32 0x8C379A000000000000000000000000000000000000000000000000000000000 DUP2 MSTORE PUSH1 0x4 ADD PUSH2 0x778 SWAP1 PUSH2 0x144D JUMP JUMPDEST PUSH1 0x40 MLOAD DUP1 SWAP2 SUB SWAP1 REVERT JUMPDEST DUP2 PUSH1 0x3 DUP1 SLOAD DUP1 PUSH1 0x20 MUL PUSH1 0x20 ADD PUSH1 0x40 MLOAD SWAP1 DUP2 ADD PUSH1 0x40 MSTORE DUP1 SWAP3 SWAP2 SWAP1 DUP2 DUP2 MSTORE PUSH1 0x20 ADD PUSH1 0x0 SWAP1 JUMPDEST DUP3 DUP3 LT ISZERO PUSH2 0x872 JUMPI DUP4 DUP3 SWAP1 PUSH1 0x0 MSTORE PUSH1 0x20 PUSH1 0x0 KECCAK256 SWAP1 PUSH1 0x2 MUL ADD PUSH1 0x40 MLOAD DUP1 PUSH1 0x40 ADD PUSH1 0x40 MSTORE SWAP1 DUP2 PUSH1 0x0 DUP3 ADD DUP1 SLOAD PUSH2 0x7D7 SWAP1 PUSH2 0x1616 JUMP JUMPDEST DUP1 PUSH1 0x1F ADD PUSH1 0x20 DUP1 SWAP2 DIV MUL PUSH1 0x20 ADD PUSH1 0x40 MLOAD SWAP1 DUP2 ADD PUSH1 0x40 MSTORE DUP1 SWAP3 SWAP2 SWAP1 DUP2 DUP2 MSTORE PUSH1 0x20 ADD DUP3 DUP1 SLOAD PUSH2 0x803 SWAP1 PUSH2 0x1616 JUMP JUMPDEST DUP1 ISZERO PUSH2 0x850 JUMPI DUP1 PUSH1 0x1F LT PUSH2 0x825 JUMPI PUSH2 0x100 DUP1 DUP4 SLOAD DIV MUL DUP4 MSTORE SWAP2 PUSH1 0x20 ADD SWAP2 PUSH2 0x850 JUMP JUMPDEST DUP3 ADD SWAP2 SWAP1 PUSH1 0x0 MSTORE PUSH1 0x20 PUSH1 0x0 KECCAK256 SWAP1 JUMPDEST DUP2 SLOAD DUP2 MSTORE SWAP1 PUSH1 0x1 ADD SWAP1 PUSH1 0x20 ADD DUP1 DUP4 GT PUSH2 0x833 JUMPI DUP3 SWAP1 SUB PUSH1 0x1F AND DUP3 ADD SWAP2 JUMPDEST POP POP POP POP POP DUP2 MSTORE PUSH1 0x20 ADD PUSH1 0x1 DUP3 ADD SLOAD DUP2 MSTORE POP POP DUP2 MSTORE PUSH1 0x20 ADD SWAP1 PUSH1 0x1 ADD SWAP1 PUSH2 0x7A4 JUMP JUMPDEST POP POP POP POP DUP1 MLOAD DUP3 LT DUP1 ISZERO PUSH2 0x887 JUMPI POP PUSH1 0x0 DUP3 LT ISZERO JUMPDEST PUSH2 0x8C6 JUMPI PUSH1 0x40 MLOAD PUSH32 0x8C379A000000000000000000000000000000000000000000000000000000000 DUP2 MSTORE PUSH1 0x4 ADD PUSH2 0x8BD SWAP1 PUSH2 0x140D JUMP JUMPDEST PUSH1 0x40 MLOAD DUP1 SWAP2 SUB SWAP1 REVERT JUMPDEST PUSH1 0x1 PUSH1 0x3 DUP6 DUP2 SLOAD DUP2 LT PUSH2 0x8DC JUMPI PUSH2 0x8DB PUSH2 0x16EF JUMP JUMPDEST JUMPDEST SWAP1 PUSH1 0x0 MSTORE PUSH1 0x20 PUSH1 0x0 KECCAK256 SWAP1 PUSH1 0x2 MUL ADD PUSH1 0x1 ADD PUSH1 0x0 DUP3 DUP3 SLOAD PUSH2 0x8FC SWAP2 SWAP1 PUSH2 0x1573 JUMP JUMPDEST SWAP3 POP POP DUP2 SWAP1 SSTORE POP PUSH1 0x2 PUSH1 0x0 CALLER PUSH20 0xFFFFFFFFFFFFFFFFFFFFFFFFFFFFFFFFFFFFFFFF AND PUSH20 0xFFFFFFFFFFFFFFFFFFFFFFFFFFFFFFFFFFFFFFFF AND DUP2 MSTORE PUSH1 0x20 ADD SWAP1 DUP2 MSTORE PUSH1 0x20 ADD PUSH1 0x0 KECCAK256 DUP5 SWAP1 DUP1 PUSH1 0x1 DUP2 SLOAD ADD DUP1 DUP3 SSTORE DUP1 SWAP2 POP POP PUSH1 0x1 SWAP1 SUB SWAP1 PUSH1 0x0 MSTORE PUSH1 0x20 PUSH1 0x0 KECCAK256 ADD PUSH1 0x0 SWAP1 SWAP2 SWAP1 SWAP2 SWAP1 SWAP2 POP SSTORE PUSH1 0x1 PUSH1 0x0 DUP6 DUP2 MSTORE PUSH1 0x20 ADD SWAP1 DUP2 MSTORE PUSH1 0x20 ADD PUSH1 0x0 KECCAK256 CALLER SWAP1 DUP1 PUSH1 0x1 DUP2 SLOAD ADD DUP1 DUP3 SSTORE DUP1 SWAP2 POP POP PUSH1 0x1 SWAP1 SUB SWAP1 PUSH1 0x0 MSTORE PUSH1 0x20 PUSH1 0x0 KECCAK256 ADD PUSH1 0x0 SWAP1 SWAP2 SWAP1 SWAP2 SWAP1 SWAP2 PUSH2 0x100 EXP DUP2 SLOAD DUP2 PUSH20 0xFFFFFFFFFFFFFFFFFFFFFFFFFFFFFFFFFFFFFFFF MUL NOT AND SWAP1 DUP4 PUSH20 0xFFFFFFFFFFFFFFFFFFFFFFFFFFFFFFFFFFFFFFFF AND MUL OR SWAP1 SSTORE POP POP POP POP POP JUMP JUMPDEST PUSH1 0x0 DUP1 SLOAD SWAP1 PUSH2 0x100 EXP SWAP1 DIV PUSH20 0xFFFFFFFFFFFFFFFFFFFFFFFFFFFFFFFFFFFFFFFF AND DUP2 JUMP JUMPDEST PUSH1 0x1 PUSH1 0x20 MSTORE DUP2 PUSH1 0x0 MSTORE PUSH1 0x40 PUSH1 0x0 KECCAK256 DUP2 DUP2 SLOAD DUP2 LT PUSH2 0xA23 JUMPI PUSH1 0x0 DUP1 REVERT JUMPDEST SWAP1 PUSH1 0x0 MSTORE PUSH1 0x20 PUSH1 0x0 KECCAK256 ADD PUSH1 0x0 SWAP2 POP SWAP2 POP SWAP1 SLOAD SWAP1 PUSH2 0x100 EXP SWAP1 DIV PUSH20 0xFFFFFFFFFFFFFFFFFFFFFFFFFFFFFFFFFFFFFFFF AND DUP2 JUMP JUMPDEST CALLER DUP2 PUSH1 0x0 DUP1 PUSH1 0x2 PUSH1 0x0 DUP6 PUSH20 0xFFFFFFFFFFFFFFFFFFFFFFFFFFFFFFFFFFFFFFFF AND PUSH20 0xFFFFFFFFFFFFFFFFFFFFFFFFFFFFFFFFFFFFFFFF AND DUP2 MSTORE PUSH1 0x20 ADD SWAP1 DUP2 MSTORE PUSH1 0x20 ADD PUSH1 0x0 KECCAK256 DUP1 SLOAD DUP1 PUSH1 0x20 MUL PUSH1 0x20 ADD PUSH1 0x40 MLOAD SWAP1 DUP2 ADD PUSH1 0x40 MSTORE DUP1 SWAP3 SWAP2 SWAP1 DUP2 DUP2 MSTORE PUSH1 0x20 ADD DUP3 DUP1 SLOAD DUP1 ISZERO PUSH2 0xAE3 JUMPI PUSH1 0x20 MUL DUP3 ADD SWAP2 SWAP1 PUSH1 0x0 MSTORE PUSH1 0x20 PUSH1 0x0 KECCAK256 SWAP1 JUMPDEST DUP2 SLOAD DUP2 MSTORE PUSH1 0x20 ADD SWAP1 PUSH1 0x1 ADD SWAP1 DUP1 DUP4 GT PUSH2 0xACF JUMPI JUMPDEST POP POP POP POP POP SWAP1 POP PUSH1 0x0 JUMPDEST DUP2 MLOAD DUP2 LT ISZERO PUSH2 0xB39 JUMPI DUP2 DUP2 DUP2 MLOAD DUP2 LT PUSH2 0xB09 JUMPI PUSH2 0xB08 PUSH2 0x16EF JUMP JUMPDEST JUMPDEST PUSH1 0x20 MUL PUSH1 0x20 ADD ADD MLOAD DUP5 EQ ISZERO PUSH2 0xB21 JUMPI PUSH1 0x1 SWAP3 POP PUSH2 0xB26 JUMP JUMPDEST PUSH1 0x0 SWAP3 POP JUMPDEST DUP1 DUP1 PUSH2 0xB31 SWAP1 PUSH2 0x1648 JUMP JUMPDEST SWAP2 POP POP PUSH2 0xAED JUMP JUMPDEST POP DUP2 PUSH2 0xB7A JUMPI PUSH1 0x40 MLOAD PUSH32 0x8C379A000000000000000000000000000000000000000000000000000000000 DUP2 MSTORE PUSH1 0x4 ADD PUSH2 0xB71 SWAP1 PUSH2 0x13ED JUMP JUMPDEST PUSH1 0x40 MLOAD DUP1 SWAP2 SUB SWAP1 REVERT JUMPDEST DUP5 PUSH1 0x3 DUP1 SLOAD DUP1 PUSH1 0x20 MUL PUSH1 0x20 ADD PUSH1 0x40 MLOAD SWAP1 DUP2 ADD PUSH1 0x40 MSTORE DUP1 SWAP3 SWAP2 SWAP1 DUP2 DUP2 MSTORE PUSH1 0x20 ADD PUSH1 0x0 SWAP1 JUMPDEST DUP3 DUP3 LT ISZERO PUSH2 0xC6B JUMPI DUP4 DUP3 SWAP1 PUSH1 0x0 MSTORE PUSH1 0x20 PUSH1 0x0 KECCAK256 SWAP1 PUSH1 0x2 MUL ADD PUSH1 0x40 MLOAD DUP1 PUSH1 0x40 ADD PUSH1 0x40 MSTORE SWAP1 DUP2 PUSH1 0x0 DUP3 ADD DUP1 SLOAD PUSH2 0xBD0 SWAP1 PUSH2 0x1616 JUMP JUMPDEST DUP1 PUSH1 0x1F ADD PUSH1 0x20 DUP1 SWAP2 DIV MUL PUSH1 0x20 ADD PUSH1 0x40 MLOAD SWAP1 DUP2 ADD PUSH1 0x40 MSTORE DUP1 SWAP3 SWAP2 SWAP1 DUP2 DUP2 MSTORE PUSH1 0x20 ADD DUP3 DUP1 SLOAD PUSH2 0xBFC SWAP1 PUSH2 0x1616 JUMP JUMPDEST DUP1 ISZERO PUSH2 0xC49 JUMPI DUP1 PUSH1 0x1F LT PUSH2 0xC1E JUMPI PUSH2 0x100 DUP1 DUP4 SLOAD DIV MUL DUP4 MSTORE SWAP2 PUSH1 0x20 ADD SWAP2 PUSH2 0xC49 JUMP JUMPDEST DUP3 ADD SWAP2 SWAP1 PUSH1 0x0 MSTORE PUSH1 0x20 PUSH1 0x0 KECCAK256 SWAP1 JUMPDEST DUP2 SLOAD DUP2 MSTORE SWAP1 PUSH1 0x1 ADD SWAP1 PUSH1 0x20 ADD DUP1 DUP4 GT PUSH2 0xC2C JUMPI DUP3 SWAP1 SUB PUSH1 0x1F AND DUP3 ADD SWAP2 JUMPDEST POP POP POP POP POP DUP2 MSTORE PUSH1 0x20 ADD PUSH1 0x1 DUP3 ADD SLOAD DUP2 MSTORE POP POP DUP2 MSTORE PUSH1 0x20 ADD SWAP1 PUSH1 0x1 ADD SWAP1 PUSH2 0xB9D JUMP JUMPDEST POP POP POP POP DUP1 MLOAD DUP3 LT DUP1 ISZERO PUSH2 0xC80 JUMPI POP PUSH1 0x0 DUP3 LT ISZERO JUMPDEST PUSH2 0xCBF JUMPI PUSH1 0x40 MLOAD PUSH32 0x8C379A000000000000000000000000000000000000000000000000000000000 DUP2 MSTORE PUSH1 0x4 ADD PUSH2 0xCB6 SWAP1 PUSH2 0x140D JUMP JUMPDEST PUSH1 0x40 MLOAD DUP1 SWAP2 SUB SWAP1 REVERT JUMPDEST PUSH1 0x1 PUSH1 0x3 DUP9 DUP2 SLOAD DUP2 LT PUSH2 0xCD5 JUMPI PUSH2 0xCD4 PUSH2 0x16EF JUMP JUMPDEST JUMPDEST SWAP1 PUSH1 0x0 MSTORE PUSH1 0x20 PUSH1 0x0 KECCAK256 SWAP1 PUSH1 0x2 MUL ADD PUSH1 0x1 ADD PUSH1 0x0 DUP3 DUP3 SLOAD PUSH2 0xCF5 SWAP2 SWAP1 PUSH2 0x151D JUMP JUMPDEST SWAP3 POP POP DUP2 SWAP1 SSTORE POP PUSH1 0x2 PUSH1 0x0 CALLER PUSH20 0xFFFFFFFFFFFFFFFFFFFFFFFFFFFFFFFFFFFFFFFF AND PUSH20 0xFFFFFFFFFFFFFFFFFFFFFFFFFFFFFFFFFFFFFFFF AND DUP2 MSTORE PUSH1 0x20 ADD SWAP1 DUP2 MSTORE PUSH1 0x20 ADD PUSH1 0x0 KECCAK256 POP POP POP POP POP POP POP POP JUMP JUMPDEST PUSH1 0x60 PUSH1 0x0 PUSH1 0x3 DUP1 SLOAD SWAP1 POP GT PUSH2 0xD8F JUMPI PUSH1 0x40 MLOAD PUSH32 0x8C379A000000000000000000000000000000000000000000000000000000000 DUP2 MSTORE PUSH1 0x4 ADD PUSH2 0xD86 SWAP1 PUSH2 0x13CD JUMP JUMPDEST PUSH1 0x40 MLOAD DUP1 SWAP2 SUB SWAP1 REVERT JUMPDEST PUSH1 0x0 PUSH1 0x40 MLOAD DUP1 PUSH1 0x20 ADD PUSH1 0x40 MSTORE DUP1 PUSH1 0x0 DUP2 MSTORE POP SWAP1 POP PUSH1 0x0 JUMPDEST PUSH1 0x3 DUP1 SLOAD SWAP1 POP DUP2 LT ISZERO PUSH2 0xE0E JUMPI DUP2 PUSH1 0x3 DUP3 DUP2 SLOAD DUP2 LT PUSH2 0xDC8 JUMPI PUSH2 0xDC7 PUSH2 0x16EF JUMP JUMPDEST JUMPDEST SWAP1 PUSH1 0x0 MSTORE PUSH1 0x20 PUSH1 0x0 KECCAK256 SWAP1 PUSH1 0x2 MUL ADD PUSH1 0x0 ADD PUSH1 0x40 MLOAD PUSH1 0x20 ADD PUSH2 0xDEA SWAP3 SWAP2 SWAP1 PUSH2 0x130F JUMP JUMPDEST PUSH1 0x40 MLOAD PUSH1 0x20 DUP2 DUP4 SUB SUB DUP2 MSTORE SWAP1 PUSH1 0x40 MSTORE SWAP2 POP DUP1 DUP1 PUSH2 0xE06 SWAP1 PUSH2 0x1648 JUMP JUMPDEST SWAP2 POP POP PUSH2 0xDA6 JUMP JUMPDEST POP DUP1 SWAP2 POP POP SWAP1 JUMP JUMPDEST PUSH1 0x2 PUSH1 0x20 MSTORE DUP2 PUSH1 0x0 MSTORE PUSH1 0x40 PUSH1 0x0 KECCAK256 DUP2 DUP2 SLOAD DUP2 LT PUSH2 0xE32 JUMPI PUSH1 0x0 DUP1 REVERT JUMPDEST SWAP1 PUSH1 0x0 MSTORE PUSH1 0x20 PUSH1 0x0 KECCAK256 ADD PUSH1 0x0 SWAP2 POP SWAP2 POP POP SLOAD DUP2 JUMP JUMPDEST DUP3 DUP1 SLOAD PUSH2 0xE53 SWAP1 PUSH2 0x1616 JUMP JUMPDEST SWAP1 PUSH1 0x0 MSTORE PUSH1 0x20 PUSH1 0x0 KECCAK256 SWAP1 PUSH1 0x1F ADD PUSH1 0x20 SWAP1 DIV DUP2 ADD SWAP3 DUP3 PUSH2 0xE75 JUMPI PUSH1 0x0 DUP6 SSTORE PUSH2 0xEBC JUMP JUMPDEST DUP3 PUSH1 0x1F LT PUSH2 0xE8E JUMPI DUP1 MLOAD PUSH1 0xFF NOT AND DUP4 DUP1 ADD OR DUP6 SSTORE PUSH2 0xEBC JUMP JUMPDEST DUP3 DUP1 ADD PUSH1 0x1 ADD DUP6 SSTORE DUP3 ISZERO PUSH2 0xEBC JUMPI SWAP2 DUP3 ADD JUMPDEST DUP3 DUP2 GT ISZERO PUSH2 0xEBB JUMPI DUP3 MLOAD DUP3 SSTORE SWAP2 PUSH1 0x20 ADD SWAP2 SWAP1 PUSH1 0x1 ADD SWAP1 PUSH2 0xEA0 JUMP JUMPDEST JUMPDEST POP SWAP1 POP PUSH2 0xEC9 SWAP2 SWAP1 PUSH2 0xECD JUMP JUMPDEST POP SWAP1 JUMP JUMPDEST JUMPDEST DUP1 DUP3 GT ISZERO PUSH2 0xEE6 JUMPI PUSH1 0x0 DUP2 PUSH1 0x0 SWAP1 SSTORE POP PUSH1 0x1 ADD PUSH2 0xECE JUMP JUMPDEST POP SWAP1 JUMP JUMPDEST PUSH1 0x0 DUP2 CALLDATALOAD SWAP1 POP PUSH2 0xEF9 DUP2 PUSH2 0x18FF JUMP JUMPDEST SWAP3 SWAP2 POP POP JUMP JUMPDEST PUSH1 0x0 DUP1 DUP4 PUSH1 0x1F DUP5 ADD SLT PUSH2 0xF15 JUMPI PUSH2 0xF14 PUSH2 0x1723 JUMP JUMPDEST JUMPDEST DUP3 CALLDATALOAD SWAP1 POP PUSH8 0xFFFFFFFFFFFFFFFF DUP2 GT ISZERO PUSH2 0xF32 JUMPI PUSH2 0xF31 PUSH2 0x171E JUMP JUMPDEST JUMPDEST PUSH1 0x20 DUP4 ADD SWAP2 POP DUP4 PUSH1 0x1 DUP3 MUL DUP4 ADD GT ISZERO PUSH2 0xF4E JUMPI PUSH2 0xF4D PUSH2 0x1728 JUMP JUMPDEST JUMPDEST SWAP3 POP SWAP3 SWAP1 POP JUMP JUMPDEST PUSH1 0x0 DUP2 CALLDATALOAD SWAP1 POP PUSH2 0xF64 DUP2 PUSH2 0x1916 JUMP JUMPDEST SWAP3 SWAP2 POP POP JUMP JUMPDEST PUSH1 0x0 DUP1 PUSH1 0x40 DUP4 DUP6 SUB SLT ISZERO PUSH2 0xF81 JUMPI PUSH2 0xF80 PUSH2 0x1732 JUMP JUMPDEST JUMPDEST PUSH1 0x0 PUSH2 0xF8F DUP6 DUP3 DUP7 ADD PUSH2 0xEEA JUMP JUMPDEST SWAP3 POP POP PUSH1 0x20 PUSH2 0xFA0 DUP6 DUP3 DUP7 ADD PUSH2 0xF55 JUMP JUMPDEST SWAP2 POP POP SWAP3 POP SWAP3 SWAP1 POP JUMP JUMPDEST PUSH1 0x0 DUP1 PUSH1 0x0 PUSH1 0x40 DUP5 DUP7 SUB SLT ISZERO PUSH2 0xFC3 JUMPI PUSH2 0xFC2 PUSH2 0x1732 JUMP JUMPDEST JUMPDEST PUSH1 0x0 DUP5 ADD CALLDATALOAD PUSH8 0xFFFFFFFFFFFFFFFF DUP2 GT ISZERO PUSH2 0xFE1 JUMPI PUSH2 0xFE0 PUSH2 0x172D JUMP JUMPDEST JUMPDEST PUSH2 0xFED DUP7 DUP3 DUP8 ADD PUSH2 0xEFF JUMP JUMPDEST SWAP4 POP SWAP4 POP POP PUSH1 0x20 PUSH2 0x1000 DUP7 DUP3 DUP8 ADD PUSH2 0xF55 JUMP JUMPDEST SWAP2 POP POP SWAP3 POP SWAP3 POP SWAP3 JUMP JUMPDEST PUSH1 0x0 PUSH1 0x20 DUP3 DUP5 SUB SLT ISZERO PUSH2 0x1020 JUMPI PUSH2 0x101F PUSH2 0x1732 JUMP JUMPDEST JUMPDEST PUSH1 0x0 PUSH2 0x102E DUP5 DUP3 DUP6 ADD PUSH2 0xF55 JUMP JUMPDEST SWAP2 POP POP SWAP3 SWAP2 POP POP JUMP JUMPDEST PUSH1 0x0 DUP1 PUSH1 0x40 DUP4 DUP6 SUB SLT ISZERO PUSH2 0x104E JUMPI PUSH2 0x104D PUSH2 0x1732 JUMP JUMPDEST JUMPDEST PUSH1 0x0 PUSH2 0x105C DUP6 DUP3 DUP7 ADD PUSH2 0xF55 JUMP JUMPDEST SWAP3 POP POP PUSH1 0x20 PUSH2 0x106D DUP6 DUP3 DUP7 ADD PUSH2 0xF55 JUMP JUMPDEST SWAP2 POP POP SWAP3 POP SWAP3 SWAP1 POP JUMP JUMPDEST PUSH1 0x0 PUSH2 0x1083 DUP4 DUP4 PUSH2 0x108F JUMP JUMPDEST PUSH1 0x20 DUP4 ADD SWAP1 POP SWAP3 SWAP2 POP POP JUMP JUMPDEST PUSH2 0x1098 DUP2 PUSH2 0x15A7 JUMP JUMPDEST DUP3 MSTORE POP POP JUMP JUMPDEST PUSH2 0x10A7 DUP2 PUSH2 0x15A7 JUMP JUMPDEST DUP3 MSTORE POP POP JUMP JUMPDEST PUSH1 0x0 PUSH2 0x10B8 DUP3 PUSH2 0x14CD JUMP JUMPDEST PUSH2 0x10C2 DUP2 DUP6 PUSH2 0x14F0 JUMP JUMPDEST SWAP4 POP PUSH2 0x10CD DUP4 PUSH2 0x14A8 JUMP JUMPDEST DUP1 PUSH1 0x0 JUMPDEST DUP4 DUP2 LT ISZERO PUSH2 0x10FE JUMPI DUP2 MLOAD PUSH2 0x10E5 DUP9 DUP3 PUSH2 0x1077 JUMP JUMPDEST SWAP8 POP PUSH2 0x10F0 DUP4 PUSH2 0x14E3 JUMP JUMPDEST SWAP3 POP POP PUSH1 0x1 DUP2 ADD SWAP1 POP PUSH2 0x10D1 JUMP JUMPDEST POP DUP6 SWAP4 POP POP POP POP SWAP3 SWAP2 POP POP JUMP JUMPDEST PUSH1 0x0 PUSH2 0x1116 DUP3 PUSH2 0x14D8 JUMP JUMPDEST PUSH2 0x1120 DUP2 DUP6 PUSH2 0x1501 JUMP JUMPDEST SWAP4 POP PUSH2 0x1130 DUP2 DUP6 PUSH1 0x20 DUP7 ADD PUSH2 0x15E3 JUMP JUMPDEST PUSH2 0x1139 DUP2 PUSH2 0x1737 JUMP JUMPDEST DUP5 ADD SWAP2 POP POP SWAP3 SWAP2 POP POP JUMP JUMPDEST PUSH1 0x0 PUSH2 0x114F DUP3 PUSH2 0x14D8 JUMP JUMPDEST PUSH2 0x1159 DUP2 DUP6 PUSH2 0x1512 JUMP JUMPDEST SWAP4 POP PUSH2 0x1169 DUP2 DUP6 PUSH1 0x20 DUP7 ADD PUSH2 0x15E3 JUMP JUMPDEST DUP1 DUP5 ADD SWAP2 POP POP SWAP3 SWAP2 POP POP JUMP JUMPDEST PUSH1 0x0 DUP2 SLOAD PUSH2 0x1182 DUP2 PUSH2 0x1616 JUMP JUMPDEST PUSH2 0x118C DUP2 DUP7 PUSH2 0x1512 JUMP JUMPDEST SWAP5 POP PUSH1 0x1 DUP3 AND PUSH1 0x0 DUP2 EQ PUSH2 0x11A7 JUMPI PUSH1 0x1 DUP2 EQ PUSH2 0x11B8 JUMPI PUSH2 0x11EB JUMP JUMPDEST PUSH1 0xFF NOT DUP4 AND DUP7 MSTORE DUP2 DUP7 ADD SWAP4 POP PUSH2 0x11EB JUMP JUMPDEST PUSH2 0x11C1 DUP6 PUSH2 0x14B8 JUMP JUMPDEST PUSH1 0x0 JUMPDEST DUP4 DUP2 LT ISZERO PUSH2 0x11E3 JUMPI DUP2 SLOAD DUP2 DUP10 ADD MSTORE PUSH1 0x1 DUP3 ADD SWAP2 POP PUSH1 0x20 DUP2 ADD SWAP1 POP PUSH2 0x11C4 JUMP JUMPDEST DUP4 DUP9 ADD SWAP6 POP POP POP JUMPDEST POP POP POP SWAP3 SWAP2 POP POP JUMP JUMPDEST PUSH1 0x0 PUSH2 0x1201 PUSH1 0x1 DUP4 PUSH2 0x1512 JUMP JUMPDEST SWAP2 POP PUSH2 0x120C DUP3 PUSH2 0x1748 JUMP JUMPDEST PUSH1 0x1 DUP3 ADD SWAP1 POP SWAP2 SWAP1 POP JUMP JUMPDEST PUSH1 0x0 PUSH2 0x1224 PUSH1 0x2B DUP4 PUSH2 0x1501 JUMP JUMPDEST SWAP2 POP PUSH2 0x122F DUP3 PUSH2 0x1771 JUMP JUMPDEST PUSH1 0x40 DUP3 ADD SWAP1 POP SWAP2 SWAP1 POP JUMP JUMPDEST PUSH1 0x0 PUSH2 0x1247 PUSH1 0x2B DUP4 PUSH2 0x1501 JUMP JUMPDEST SWAP2 POP PUSH2 0x1252 DUP3 PUSH2 0x17C0 JUMP JUMPDEST PUSH1 0x40 DUP3 ADD SWAP1 POP SWAP2 SWAP1 POP JUMP JUMPDEST PUSH1 0x0 PUSH2 0x126A PUSH1 0x2F DUP4 PUSH2 0x1501 JUMP JUMPDEST SWAP2 POP PUSH2 0x1275 DUP3 PUSH2 0x180F JUMP JUMPDEST PUSH1 0x40 DUP3 ADD SWAP1 POP SWAP2 SWAP1 POP JUMP JUMPDEST PUSH1 0x0 PUSH2 0x128D PUSH1 0x18 DUP4 PUSH2 0x1501 JUMP JUMPDEST SWAP2 POP PUSH2 0x1298 DUP3 PUSH2 0x185E JUMP JUMPDEST PUSH1 0x20 DUP3 ADD SWAP1 POP SWAP2 SWAP1 POP JUMP JUMPDEST PUSH1 0x0 PUSH2 0x12B0 PUSH1 0x24 DUP4 PUSH2 0x1501 JUMP JUMPDEST SWAP2 POP PUSH2 0x12BB DUP3 PUSH2 0x1887 JUMP JUMPDEST PUSH1 0x40 DUP3 ADD SWAP1 POP SWAP2 SWAP1 POP JUMP JUMPDEST PUSH1 0x0 PUSH2 0x12D3 PUSH1 0x1F DUP4 PUSH2 0x1501 JUMP JUMPDEST SWAP2 POP PUSH2 0x12DE DUP3 PUSH2 0x18D6 JUMP JUMPDEST PUSH1 0x20 DUP3 ADD SWAP1 POP SWAP2 SWAP1 POP JUMP JUMPDEST PUSH2 0x12F2 DUP2 PUSH2 0x15D9 JUMP JUMPDEST DUP3 MSTORE POP POP JUMP JUMPDEST PUSH1 0x0 PUSH2 0x1304 DUP3 DUP5 PUSH2 0x1144 JUMP JUMPDEST SWAP2 POP DUP2 SWAP1 POP SWAP3 SWAP2 POP POP JUMP JUMPDEST PUSH1 0x0 PUSH2 0x131B DUP3 DUP6 PUSH2 0x1144 JUMP JUMPDEST SWAP2 POP PUSH2 0x1327 DUP3 DUP5 PUSH2 0x1175 JUMP JUMPDEST SWAP2 POP PUSH2 0x1332 DUP3 PUSH2 0x11F4 JUMP JUMPDEST SWAP2 POP DUP2 SWAP1 POP SWAP4 SWAP3 POP POP POP JUMP JUMPDEST PUSH1 0x0 PUSH1 0x20 DUP3 ADD SWAP1 POP PUSH2 0x1353 PUSH1 0x0 DUP4 ADD DUP5 PUSH2 0x109E JUMP JUMPDEST SWAP3 SWAP2 POP POP JUMP JUMPDEST PUSH1 0x0 PUSH1 0x20 DUP3 ADD SWAP1 POP DUP2 DUP2 SUB PUSH1 0x0 DUP4 ADD MSTORE PUSH2 0x1373 DUP2 DUP5 PUSH2 0x10AD JUMP JUMPDEST SWAP1 POP SWAP3 SWAP2 POP POP JUMP JUMPDEST PUSH1 0x0 PUSH1 0x20 DUP3 ADD SWAP1 POP DUP2 DUP2 SUB PUSH1 0x0 DUP4 ADD MSTORE PUSH2 0x1395 DUP2 DUP5 PUSH2 0x110B JUMP JUMPDEST SWAP1 POP SWAP3 SWAP2 POP POP JUMP JUMPDEST PUSH1 0x0 PUSH1 0x40 DUP3 ADD SWAP1 POP DUP2 DUP2 SUB PUSH1 0x0 DUP4 ADD MSTORE PUSH2 0x13B7 DUP2 DUP6 PUSH2 0x110B JUMP JUMPDEST SWAP1 POP PUSH2 0x13C6 PUSH1 0x20 DUP4 ADD DUP5 PUSH2 0x12E9 JUMP JUMPDEST SWAP4 SWAP3 POP POP POP JUMP JUMPDEST PUSH1 0x0 PUSH1 0x20 DUP3 ADD SWAP1 POP DUP2 DUP2 SUB PUSH1 0x0 DUP4 ADD MSTORE PUSH2 0x13E6 DUP2 PUSH2 0x1217 JUMP JUMPDEST SWAP1 POP SWAP2 SWAP1 POP JUMP JUMPDEST PUSH1 0x0 PUSH1 0x20 DUP3 ADD SWAP1 POP DUP2 DUP2 SUB PUSH1 0x0 DUP4 ADD MSTORE PUSH2 0x1406 DUP2 PUSH2 0x123A JUMP JUMPDEST SWAP1 POP SWAP2 SWAP1 POP JUMP JUMPDEST PUSH1 0x0 PUSH1 0x20 DUP3 ADD SWAP1 POP DUP2 DUP2 SUB PUSH1 0x0 DUP4 ADD MSTORE PUSH2 0x1426 DUP2 PUSH2 0x125D JUMP JUMPDEST SWAP1 POP SWAP2 SWAP1 POP JUMP JUMPDEST PUSH1 0x0 PUSH1 0x20 DUP3 ADD SWAP1 POP DUP2 DUP2 SUB PUSH1 0x0 DUP4 ADD MSTORE PUSH2 0x1446 DUP2 PUSH2 0x1280 JUMP JUMPDEST SWAP1 POP SWAP2 SWAP1 POP JUMP JUMPDEST PUSH1 0x0 PUSH1 0x20 DUP3 ADD SWAP1 POP DUP2 DUP2 SUB PUSH1 0x0 DUP4 ADD MSTORE PUSH2 0x1466 DUP2 PUSH2 0x12A3 JUMP JUMPDEST SWAP1 POP SWAP2 SWAP1 POP JUMP JUMPDEST PUSH1 0x0 PUSH1 0x20 DUP3 ADD SWAP1 POP DUP2 DUP2 SUB PUSH1 0x0 DUP4 ADD MSTORE PUSH2 0x1486 DUP2 PUSH2 0x12C6 JUMP JUMPDEST SWAP1 POP SWAP2 SWAP1 POP JUMP JUMPDEST PUSH1 0x0 PUSH1 0x20 DUP3 ADD SWAP1 POP PUSH2 0x14A2 PUSH1 0x0 DUP4 ADD DUP5 PUSH2 0x12E9 JUMP JUMPDEST SWAP3 SWAP2 POP POP JUMP JUMPDEST PUSH1 0x0 DUP2 SWAP1 POP PUSH1 0x20 DUP3 ADD SWAP1 POP SWAP2 SWAP1 POP JUMP JUMPDEST PUSH1 0x0 DUP2 SWAP1 POP DUP2 PUSH1 0x0 MSTORE PUSH1 0x20 PUSH1 0x0 KECCAK256 SWAP1 POP SWAP2 SWAP1 POP JUMP JUMPDEST PUSH1 0x0 DUP2 MLOAD SWAP1 POP SWAP2 SWAP1 POP JUMP JUMPDEST PUSH1 0x0 DUP2 MLOAD SWAP1 POP SWAP2 SWAP1 POP JUMP JUMPDEST PUSH1 0x0 PUSH1 0x20 DUP3 ADD SWAP1 POP SWAP2 SWAP1 POP JUMP JUMPDEST PUSH1 0x0 DUP3 DUP3 MSTORE PUSH1 0x20 DUP3 ADD SWAP1 POP SWAP3 SWAP2 POP POP JUMP JUMPDEST PUSH1 0x0 DUP3 DUP3 MSTORE PUSH1 0x20 DUP3 ADD SWAP1 POP SWAP3 SWAP2 POP POP JUMP JUMPDEST PUSH1 0x0 DUP2 SWAP1 POP SWAP3 SWAP2 POP POP JUMP JUMPDEST PUSH1 0x0 PUSH2 0x1528 DUP3 PUSH2 0x15D9 JUMP JUMPDEST SWAP2 POP PUSH2 0x1533 DUP4 PUSH2 0x15D9 JUMP JUMPDEST SWAP3 POP DUP3 PUSH32 0xFFFFFFFFFFFFFFFFFFFFFFFFFFFFFFFFFFFFFFFFFFFFFFFFFFFFFFFFFFFFFFFF SUB DUP3 GT ISZERO PUSH2 0x1568 JUMPI PUSH2 0x1567 PUSH2 0x1691 JUMP JUMPDEST JUMPDEST DUP3 DUP3 ADD SWAP1 POP SWAP3 SWAP2 POP POP JUMP JUMPDEST PUSH1 0x0 PUSH2 0x157E DUP3 PUSH2 0x15D9 JUMP JUMPDEST SWAP2 POP PUSH2 0x1589 DUP4 PUSH2 0x15D9 JUMP JUMPDEST SWAP3 POP DUP3 DUP3 LT ISZERO PUSH2 0x159C JUMPI PUSH2 0x159B PUSH2 0x1691 JUMP JUMPDEST JUMPDEST DUP3 DUP3 SUB SWAP1 POP SWAP3 SWAP2 POP POP JUMP JUMPDEST PUSH1 0x0 PUSH2 0x15B2 DUP3 PUSH2 0x15B9 JUMP JUMPDEST SWAP1 POP SWAP2 SWAP1 POP JUMP JUMPDEST PUSH1 0x0 PUSH20 0xFFFFFFFFFFFFFFFFFFFFFFFFFFFFFFFFFFFFFFFF DUP3 AND SWAP1 POP SWAP2 SWAP1 POP JUMP JUMPDEST PUSH1 0x0 DUP2 SWAP1 POP SWAP2 SWAP1 POP JUMP JUMPDEST PUSH1 0x0 JUMPDEST DUP4 DUP2 LT ISZERO PUSH2 0x1601 JUMPI DUP1 DUP3 ADD MLOAD DUP2 DUP5 ADD MSTORE PUSH1 0x20 DUP2 ADD SWAP1 POP PUSH2 0x15E6 JUMP JUMPDEST DUP4 DUP2 GT ISZERO PUSH2 0x1610 JUMPI PUSH1 0x0 DUP5 DUP5 ADD MSTORE JUMPDEST POP POP POP POP JUMP JUMPDEST PUSH1 0x0 PUSH1 0x2 DUP3 DIV SWAP1 POP PUSH1 0x1 DUP3 AND DUP1 PUSH2 0x162E JUMPI PUSH1 0x7F DUP3 AND SWAP2 POP JUMPDEST PUSH1 0x20 DUP3 LT DUP2 EQ ISZERO PUSH2 0x1642 JUMPI PUSH2 0x1641 PUSH2 0x16C0 JUMP JUMPDEST JUMPDEST POP SWAP2 SWAP1 POP JUMP JUMPDEST PUSH1 0x0 PUSH2 0x1653 DUP3 PUSH2 0x15D9 JUMP JUMPDEST SWAP2 POP PUSH32 0xFFFFFFFFFFFFFFFFFFFFFFFFFFFFFFFFFFFFFFFFFFFFFFFFFFFFFFFFFFFFFFFF DUP3 EQ ISZERO PUSH2 0x1686 JUMPI PUSH2 0x1685 PUSH2 0x1691 JUMP JUMPDEST JUMPDEST PUSH1 0x1 DUP3 ADD SWAP1 POP SWAP2 SWAP1 POP JUMP JUMPDEST PUSH32 0x4E487B7100000000000000000000000000000000000000000000000000000000 PUSH1 0x0 MSTORE PUSH1 0x11 PUSH1 0x4 MSTORE PUSH1 0x24 PUSH1 0x0 REVERT JUMPDEST PUSH32 0x4E487B7100000000000000000000000000000000000000000000000000000000 PUSH1 0x0 MSTORE PUSH1 0x22 PUSH1 0x4 MSTORE PUSH1 0x24 PUSH1 0x0 REVERT JUMPDEST PUSH32 0x4E487B7100000000000000000000000000000000000000000000000000000000 PUSH1 0x0 MSTORE PUSH1 0x32 PUSH1 0x4 MSTORE PUSH1 0x24 PUSH1 0x0 REVERT JUMPDEST PUSH1 0x0 DUP1 REVERT JUMPDEST PUSH1 0x0 DUP1 REVERT JUMPDEST PUSH1 0x0 DUP1 REVERT JUMPDEST PUSH1 0x0 DUP1 REVERT JUMPDEST PUSH1 0x0 DUP1 REVERT JUMPDEST PUSH1 0x0 PUSH1 0x1F NOT PUSH1 0x1F DUP4 ADD AND SWAP1 POP SWAP2 SWAP1 POP JUMP JUMPDEST PUSH32 0x2C00000000000000000000000000000000000000000000000000000000000000 PUSH1 0x0 DUP3 ADD MSTORE POP JUMP JUMPDEST PUSH32 0x546865726520617265206E6F20617661696C616C6520626F6F6B7320696E2074 PUSH1 0x0 DUP3 ADD MSTORE PUSH32 0x6865206C69627261727921000000000000000000000000000000000000000000 PUSH1 0x20 DUP3 ADD MSTORE POP JUMP JUMPDEST PUSH32 0x5468652075736572206469646E277420626F72726F77206120636F7079206F66 PUSH1 0x0 DUP3 ADD MSTORE PUSH32 0x207468697320626F6F6B21000000000000000000000000000000000000000000 PUSH1 0x20 DUP3 ADD MSTORE POP JUMP JUMPDEST PUSH32 0x426F6F6B2077697468207468697320494420646F65736E277420657869737420 PUSH1 0x0 DUP3 ADD MSTORE PUSH32 0x696E20746865206C6962726172792E0000000000000000000000000000000000 PUSH1 0x20 DUP3 ADD MSTORE POP JUMP JUMPDEST PUSH32 0x4E6F7420696E766F6B656420627920746865206F776E65720000000000000000 PUSH1 0x0 DUP3 ADD MSTORE POP JUMP JUMPDEST PUSH32 0x5468697320626F6F6B206D7573742068617665206174206C6561737420312063 PUSH1 0x0 DUP3 ADD MSTORE PUSH32 0x6F70792100000000000000000000000000000000000000000000000000000000 PUSH1 0x20 DUP3 ADD MSTORE POP JUMP JUMPDEST PUSH32 0x546865206C69627261727920636F6E7461696E73207468617420626F6F6B2100 PUSH1 0x0 DUP3 ADD MSTORE POP JUMP JUMPDEST PUSH2 0x1908 DUP2 PUSH2 0x15A7 JUMP JUMPDEST DUP2 EQ PUSH2 0x1913 JUMPI PUSH1 0x0 DUP1 REVERT JUMPDEST POP JUMP JUMPDEST PUSH2 0x191F DUP2 PUSH2 0x15D9 JUMP JUMPDEST DUP2 EQ PUSH2 0x192A JUMPI PUSH1 0x0 DUP1 REVERT JUMPDEST POP JUMP INVALID LOG2 PUSH5 0x6970667358 0x22 SLT KECCAK256 0xDC 0xE9 MLOAD CALLDATALOAD 0x5E 0xA7 PUSH26 0x9762E5C8E7535F3AB7CAA8CDB99436FA226F2B7A18C0AAB20564 PUSH20 0x6F6C634300080700330000000000000000000000 "
		},
		"gasEstimates": {
			"creation": {
				"codeDepositCost": "1299800",
				"executionCost": "25622",
				"totalCost": "1325422"
			},
			"external": {
				"addBook(string,uint256)": "infinite",
				"bookToBorrowers(uint256,uint256)": "infinite",
				"books(uint256)": "infinite",
				"borrowBookById(uint256)": "infinite",
				"findBorrowersByBookId(uint256)": "infinite",
				"owner()": "2511",
				"returnBook(uint256)": "infinite",
				"userToCurrentBorrows(address,uint256)": "infinite",
				"viewAll()": "infinite"
			}
		},
		"methodIdentifiers": {
			"addBook(string,uint256)": "637a3872",
			"bookToBorrowers(uint256,uint256)": "9f01cf99",
			"books(uint256)": "68744046",
			"borrowBookById(uint256)": "6b95c7c1",
			"findBorrowersByBookId(uint256)": "326c45f0",
			"owner()": "8da5cb5b",
			"returnBook(uint256)": "ca5140c9",
			"userToCurrentBorrows(address,uint256)": "fc515f95",
			"viewAll()": "e0fafb5e"
		}
	},
	"abi": [
		{
			"inputs": [
				{
					"internalType": "string",
					"name": "_title",
					"type": "string"
				},
				{
					"internalType": "uint256",
					"name": "_copies",
					"type": "uint256"
				}
			],
			"name": "addBook",
			"outputs": [],
			"stateMutability": "nonpayable",
			"type": "function"
		},
		{
			"inputs": [
				{
					"internalType": "uint256",
					"name": "",
					"type": "uint256"
				},
				{
					"internalType": "uint256",
					"name": "",
					"type": "uint256"
				}
			],
			"name": "bookToBorrowers",
			"outputs": [
				{
					"internalType": "address",
					"name": "",
					"type": "address"
				}
			],
			"stateMutability": "view",
			"type": "function"
		},
		{
			"inputs": [
				{
					"internalType": "uint256",
					"name": "",
					"type": "uint256"
				}
			],
			"name": "books",
			"outputs": [
				{
					"internalType": "string",
					"name": "title",
					"type": "string"
				},
				{
					"internalType": "uint256",
					"name": "copies",
					"type": "uint256"
				}
			],
			"stateMutability": "view",
			"type": "function"
		},
		{
			"inputs": [
				{
					"internalType": "uint256",
					"name": "_bookId",
					"type": "uint256"
				}
			],
			"name": "borrowBookById",
			"outputs": [],
			"stateMutability": "nonpayable",
			"type": "function"
		},
		{
			"inputs": [
				{
					"internalType": "uint256",
					"name": "_bookId",
					"type": "uint256"
				}
			],
			"name": "findBorrowersByBookId",
			"outputs": [
				{
					"internalType": "address[]",
					"name": "",
					"type": "address[]"
				}
			],
			"stateMutability": "view",
			"type": "function"
		},
		{
			"inputs": [],
			"name": "owner",
			"outputs": [
				{
					"internalType": "address",
					"name": "",
					"type": "address"
				}
			],
			"stateMutability": "view",
			"type": "function"
		},
		{
			"inputs": [
				{
					"internalType": "uint256",
					"name": "_bookId",
					"type": "uint256"
				}
			],
			"name": "returnBook",
			"outputs": [],
			"stateMutability": "nonpayable",
			"type": "function"
		},
		{
			"inputs": [
				{
					"internalType": "address",
					"name": "",
					"type": "address"
				},
				{
					"internalType": "uint256",
					"name": "",
					"type": "uint256"
				}
			],
			"name": "userToCurrentBorrows",
			"outputs": [
				{
					"internalType": "uint256",
					"name": "",
					"type": "uint256"
				}
			],
			"stateMutability": "view",
			"type": "function"
		},
		{
			"inputs": [],
			"name": "viewAll",
			"outputs": [
				{
					"internalType": "string",
					"name": "",
					"type": "string"
				}
			],
			"stateMutability": "view",
			"type": "function"
		}
	]
}